{
  "contractName": "Lottery",
  "abi": [
    {
      "inputs": [
        {
          "internalType": "uint256",
          "name": "fee",
          "type": "uint256"
        }
      ],
      "payable": false,
      "stateMutability": "nonpayable",
      "type": "constructor"
    },
    {
      "constant": true,
      "inputs": [],
      "name": "admin",
      "outputs": [
        {
          "internalType": "address",
          "name": "",
          "type": "address"
        }
      ],
      "payable": false,
      "stateMutability": "view",
      "type": "function"
    },
    {
      "constant": true,
      "inputs": [],
      "name": "betCount",
      "outputs": [
        {
          "internalType": "uint256",
          "name": "",
          "type": "uint256"
        }
      ],
      "payable": false,
      "stateMutability": "view",
      "type": "function"
    },
    {
      "constant": true,
      "inputs": [],
      "name": "betSize",
      "outputs": [
        {
          "internalType": "uint256",
          "name": "",
          "type": "uint256"
        }
      ],
      "payable": false,
      "stateMutability": "view",
      "type": "function"
    },
    {
      "constant": true,
      "inputs": [],
      "name": "currentState",
      "outputs": [
        {
          "internalType": "enum Lottery.State",
          "name": "",
          "type": "uint8"
        }
      ],
      "payable": false,
      "stateMutability": "view",
      "type": "function"
    },
    {
      "constant": true,
      "inputs": [],
      "name": "houseFee",
      "outputs": [
        {
          "internalType": "uint256",
          "name": "",
          "type": "uint256"
        }
      ],
      "payable": false,
      "stateMutability": "view",
      "type": "function"
    },
    {
      "constant": true,
      "inputs": [
        {
          "internalType": "uint256",
          "name": "",
          "type": "uint256"
        }
      ],
      "name": "players",
      "outputs": [
        {
          "internalType": "address payable",
          "name": "",
          "type": "address"
        }
      ],
      "payable": false,
      "stateMutability": "view",
      "type": "function"
    },
    {
      "constant": true,
      "inputs": [],
      "name": "getPlayers",
      "outputs": [
        {
          "internalType": "address[]",
          "name": "",
          "type": "address[]"
        }
      ],
      "payable": false,
      "stateMutability": "view",
      "type": "function"
    },
    {
      "constant": false,
      "inputs": [
        {
          "internalType": "uint256",
          "name": "count",
          "type": "uint256"
        },
        {
          "internalType": "uint256",
          "name": "size",
          "type": "uint256"
        }
      ],
      "name": "createBet",
      "outputs": [],
      "payable": false,
      "stateMutability": "nonpayable",
      "type": "function"
    },
    {
      "constant": false,
      "inputs": [],
      "name": "bet",
      "outputs": [],
      "payable": true,
      "stateMutability": "payable",
      "type": "function"
    },
    {
      "constant": false,
      "inputs": [],
      "name": "cancel",
      "outputs": [],
      "payable": false,
      "stateMutability": "nonpayable",
      "type": "function"
    }
  ],
  "bytecode": "0x60806040526000600160006101000a81548160ff0219169083600181111561002357fe5b021790555034801561003457600080fd5b50604051610c53380380610c538339818101604052602081101561005757600080fd5b81019080805190602001909291905050506001811180156100785750606381105b6100ea576040517f08c379a000000000000000000000000000000000000000000000000000000000815260040180806020018281038252601e8152602001807f6665652073686f756c64206265206265747765656e203120616e64203939000081525060200191505060405180910390fd5b33600560006101000a81548173ffffffffffffffffffffffffffffffffffffffff021916908373ffffffffffffffffffffffffffffffffffffffff1602179055508060048190555050610b11806101426000396000f3fe6080604052600436106100915760003560e01c8063cf09449711610059578063cf0944971461019b578063ea8a1af0146101c6578063f71d96cb146101dd578063f851a44014610258578063fff058e6146102af57610091565b80630c3f6acf146100965780630ed469b8146100cf57806311610c25146100fa5780635d1d3e26146101045780638b5b9ccc1461012f575b600080fd5b3480156100a257600080fd5b506100ab6102f4565b604051808260018111156100bb57fe5b60ff16815260200191505060405180910390f35b3480156100db57600080fd5b506100e4610307565b6040518082815260200191505060405180910390f35b61010261030d565b005b34801561011057600080fd5b50610119610534565b6040518082815260200191505060405180910390f35b34801561013b57600080fd5b5061014461053a565b6040518080602001828103825283818151815260200191508051906020019060200280838360005b8381101561018757808201518184015260208101905061016c565b505050509050019250505060405180910390f35b3480156101a757600080fd5b506101b061061a565b6040518082815260200191505060405180910390f35b3480156101d257600080fd5b506101db610620565b005b3480156101e957600080fd5b506102166004803603602081101561020057600080fd5b8101908080359060200190929190505050610836565b604051808273ffffffffffffffffffffffffffffffffffffffff1673ffffffffffffffffffffffffffffffffffffffff16815260200191505060405180910390f35b34801561026457600080fd5b5061026d610872565b604051808273ffffffffffffffffffffffffffffffffffffffff1673ffffffffffffffffffffffffffffffffffffffff16815260200191505060405180910390f35b3480156102bb57600080fd5b506102f2600480360360408110156102d257600080fd5b810190808035906020019092919080359060200190929190505050610898565b005b600160009054906101000a900460ff1681565b60045481565b60018060009054906101000a900460ff16600181111561032957fe5b81600181111561033557fe5b1461038b576040517f08c379a0000000000000000000000000000000000000000000000000000000008152600401808060200182810382526021815260200180610abc6021913960400191505060405180910390fd5b60035434146103e5576040517f08c379a0000000000000000000000000000000000000000000000000000000008152600401808060200182810382526021815260200180610a9b6021913960400191505060405180910390fd5b60003390806001815401808255809150509060018203906000526020600020016000909192909190916101000a81548173ffffffffffffffffffffffffffffffffffffffff021916908373ffffffffffffffffffffffffffffffffffffffff160217905550506002546000805490501415610531576000610467600254610a10565b90506000818154811061047657fe5b9060005260206000200160009054906101000a900473ffffffffffffffffffffffffffffffffffffffff1673ffffffffffffffffffffffffffffffffffffffff166108fc60646004546064036002546003540202816104d157fe5b049081150290604051600060405180830381858888f193505050501580156104fd573d6000803e3d6000fd5b506000600160006101000a81548160ff0219169083600181111561051d57fe5b021790555060008061052f9190610a54565b505b50565b60035481565b6060806000805490506040519080825280602002602001820160405280156105715781602001602082028038833980820191505090505b50905060008090505b600080549050811015610612576000818154811061059457fe5b9060005260206000200160009054906101000a900473ffffffffffffffffffffffffffffffffffffffff168282815181106105cb57fe5b602002602001019073ffffffffffffffffffffffffffffffffffffffff16908173ffffffffffffffffffffffffffffffffffffffff1681525050808060010191505061057a565b508091505090565b60025481565b60018060009054906101000a900460ff16600181111561063c57fe5b81600181111561064857fe5b1461069e576040517f08c379a0000000000000000000000000000000000000000000000000000000008152600401808060200182810382526021815260200180610abc6021913960400191505060405180910390fd5b600560009054906101000a900473ffffffffffffffffffffffffffffffffffffffff1673ffffffffffffffffffffffffffffffffffffffff163373ffffffffffffffffffffffffffffffffffffffff1614610761576040517f08c379a000000000000000000000000000000000000000000000000000000000815260040180806020018281038252600a8152602001807f6f6e6c792061646d696e0000000000000000000000000000000000000000000081525060200191505060405180910390fd5b60008090505b600080549050811015610801576000818154811061078157fe5b9060005260206000200160009054906101000a900473ffffffffffffffffffffffffffffffffffffffff1673ffffffffffffffffffffffffffffffffffffffff166108fc6003549081150290604051600060405180830381858888f193505050501580156107f3573d6000803e3d6000fd5b508080600101915050610767565b5060008061080f9190610a54565b6000600160006101000a81548160ff0219169083600181111561082e57fe5b021790555050565b6000818154811061084357fe5b906000526020600020016000915054906101000a900473ffffffffffffffffffffffffffffffffffffffff1681565b600560009054906101000a900473ffffffffffffffffffffffffffffffffffffffff1681565b6000600160009054906101000a900460ff1660018111156108b557fe5b8160018111156108c157fe5b14610917576040517f08c379a0000000000000000000000000000000000000000000000000000000008152600401808060200182810382526021815260200180610abc6021913960400191505060405180910390fd5b600560009054906101000a900473ffffffffffffffffffffffffffffffffffffffff1673ffffffffffffffffffffffffffffffffffffffff163373ffffffffffffffffffffffffffffffffffffffff16146109da576040517f08c379a000000000000000000000000000000000000000000000000000000000815260040180806020018281038252600a8152602001807f6f6e6c792061646d696e0000000000000000000000000000000000000000000081525060200191505060405180910390fd5b826002819055508160038190555060018060006101000a81548160ff02191690836001811115610a0657fe5b0217905550505050565b600081424460405160200180838152602001828152602001925050506040516020818303038152906040528051906020012060001c81610a4c57fe5b069050919050565b5080546000825590600052602060002090810190610a729190610a75565b50565b610a9791905b80821115610a93576000816000905550600101610a7b565b5090565b9056fe63616e206f6e6c79206265742065786163746c7920746865206265742073697a6563757272656e7420737461746520646f6573206e6f7420616c6c6f772074686973a265627a7a72315820a9781616bb6dc30c43f97339a7589390fa5148a228dc7765ffd9cb33f56ed59a64736f6c63430005100032",
  "source": "pragma solidity >=0.4.0 <0.7.0;\n\n\ncontract Lottery {\n    enum State {\n        IDLE,\n        BETTING\n    }\n    address payable[] public players;\n    State public currentState = State.IDLE;\n    uint public betCount;\n    uint public betSize;\n    uint public houseFee;\n    address public admin;\n    \n    constructor(uint fee) public {\n        require(fee > 1 && fee < 99, 'fee should be between 1 and 99');\n        admin = msg.sender;\n        houseFee = fee;\n    }\n\n    function getPlayers() \n      external \n      view \n      returns(address[] memory) {\n      address[] memory _players = new address[](players.length);\n      for(uint i = 0; i < players.length; i++) { \n          _players[i] = players[i];\n      }\n      return _players;\n    }\n    \n    function createBet(uint count, uint size) \n        external \n        inState(State.IDLE) \n        onlyAdmin() {\n        betCount = count;\n        betSize = size;\n        currentState = State.BETTING;\n    }\n    \n    function bet() \n        external \n        payable \n        inState(State.BETTING) {\n        require(msg.value == betSize, 'can only bet exactly the bet size');\n        players.push(msg.sender);\n        if(players.length == betCount ) {\n            uint winner = _randomModulo(betCount);\n            players[winner].transfer((betSize * betCount) * (100 - houseFee) / 100);\n            currentState = State.IDLE;\n            delete players;\n        }\n    }\n    \n    function cancel() \n        external \n        inState(State.BETTING) \n        onlyAdmin() {\n        for(uint i = 0; i < players.length; i++) {\n            players[i].transfer(betSize);\n        }\n        delete players;\n        currentState = State.IDLE;\n    }\n    \n    function _randomModulo(uint modulo) view internal returns(uint) {\n        return uint(keccak256(abi.encodePacked(block.timestamp, block.difficulty))) % modulo;\n    }\n    \n    modifier inState(State state) {\n        require(state == currentState, 'current state does not allow this');\n        _;\n    }\n    \n    modifier onlyAdmin() {\n        require(msg.sender == admin, 'only admin');\n        _;\n    }\n}",
  "sourcePath": "/var/www/html/eattheblocks-pro-master/vueDap30/day18_lottery/contracts/Lottery.sol",
  "compiler": {
    "name": "solc",
    "version": "0.5.16+commit.9c3226ce.Emscripten.clang"
  },
  "schemaVersion": "3.3.3",
  "updatedAt": "2021-02-04T01:31:59.335Z",
  "networkType": "ethereum",
  "devdoc": {
    "methods": {}
  },
  "userdoc": {
    "methods": {}
  }
}